:100000000C94B0060C94D8060C94D8060C94D80620
:100010000C94D8060C94D8060C94D8060C94D806E8
:100020000C94D8060C94D8060C94AD070C941F08B9
:100030000C94D8060C94D8060C94D8060C94D806C8
:100040000C94D8060C94D8060C94D8060C94D806B8
:100050000C94D8060C94D8060C94D8060C94970AE5
:100060000C94D8060C94D8060C94D8060C94D80698
:100070000C94D8060C94D8060C94D8060C94D80688
:100080000C94D8060C94D8060C94D8060C94D80678
:100090000C94D8060C94D8060C94D8060C94D80668
:1000A0000C94D8060C94D8060C94D806F0F89C8EC4
:1000B0008783878E9CF8F00000FEFF030303030391
:1000C000070EFCF80000FEFF0303030303070EFC0A
:1000D000F80000FFFF00000000000000FFFF00002C
:1000E000FEFF8383838383C7EE7C380000F8FC0E19
:1000F00007030303070EFCF800003F7FE0C0808089
:10010000C0E07F3FFFFF01010101010101FFFF008E
:1001100000FFFF0C0C0C0C1C3E77E3C100007FFFBE
:10012000C0C0C0C0C0E0703F1F00001F3F70E0C0F3
:10013000C0C0E0703F1F00007FFFC1C1C1C1C1E36B
:10014000773E1C00001F3F70E0C0C0C0E0703F1F42
:10015000000000000001FFFF01000000D5F08D1439
:10016000A1C881CFD9F1AF20001414000000000015
:10017000788404040808040484780000000000E087
:1001800010C8E8E8C810E102040402E110C8C8C8B9
:10019000C810E0010204050504020100000000018E
:1001A0000204040404020114140000000000000012
:1001B0008040602090C8A8948C00000000000000DF
:1001C0000000C2A39A4620100808040201000000A3
:1001D000000000000000000000000000000000001F
:1001E00000000000002020000000000000000000CF
:1001F0000000000000FFFFFFFF0000000000000003
:1002000000000000000000C0C0C0C0C0C0C0C0C02E
:10021000C0C0C0C0C0FFFFFFFFC0C0C0C0C0C0C0E2
:10022000C0C0C0C0C0C0C003030303030303030373
:100230000303030303FFFFFFFF030303030303039E
:100240000303030303030300000000000000000099
:100250000000000000FFFFFFFF00000000000000A2
:10026000000000000000002020000000000000004E
:10027000000000000000000000000000000000007E
:10028000000000000000000000C0C0C0C0C0C0C02E
:10029000C0C0C0C0C0C0C0C0C0C0C0C0C0C0C0C05E
:1002A000C0C0C0C0C0C0C0C0C00303030303030379
:1002B000030303030303030303030303030303030E
:1002C0000303030303030303030000000000000013
:1002D000000000000000000000000000000000001E
:1002E0000000000000000000001E3FFFFF000000B3
:1002F00000000000000000000000000000000000FE
:1003000000000000000000FFFFFFFF0000000000F1
:1003100000000000000000000000000000000000DD
:100320000000000000FFFFFFFF00000000000000D1
:1003300000000000000000000000000000000000BD
:10034000000000FFFFFFFF0000000000E0180402B3
:100350000201010101010102020418E00000000095
:1003600000FFFFFFFF0000000000030C10202040F2
:1003700040404040402020100C030000000000FFDF
:10038000FFFFFF0000000000000000000000000070
:1003900000000000000000000000000000FFFFFF60
:1003A000FF0000000000000000000000000000004E
:1003B0000000000000000000000000FFFF7F7F0041
:1003C000000000000000000000000000000000002D
:1003D0000000000000000000007F7F7F3F00000061
:1003E0000000FCFC8C8C8C8C8C8CFCFC0000F0F0F5
:1003F0008C8C8C8C8C8CF0F00000F8FCCCCCCCCCB1
:10040000FCFC0000000C0C0C0CFCFC0C0C0C0C009C
:1004100000FCFC0000FCFC0C0C0C0C0C0C0000FCA8
:10042000FC00000000000000FCFCCCCCCCCC0C0C90
:100430000000FCFCCCCCCCCCCCCC00004060301814
:1004400000000000000000000000000000000000AC
:10045000000000000000000000000000000000009C
:10046000009F9F818181818181818100009F9F8187
:1004700081818181819F1F00809F9F8383878F9EC1
:100480009C800000008080809F9F80800000000092
:100490009F9F80809F9F98989818189880809F9F12
:1004A000989898989800001F1F9898989898180006
:1004B000001999999999999F9F8080800000808068
:1004C00000000080808080808080000000808000AC
:1004D000000000808000000000000000000000001C
:1004E0001F1F191919191919F9F90000FFFF191916
:1004F00019190101010000FFFF010101013131F172
:10050000F10000FFFF7979F9F9DF8F00000000FFAB
:10051000FF313131310101010000FFFF0101010113
:100520003131F1F10000FEFE3131313131FEFE009A
:100530000001010101FFFF010101010000FFFF00B7
:1005400000FFFF0101010101FFFF0000FFFF0606A0
:100550001818FFFF0000000000000000000000036A
:100560000303030303030303030000030303030361
:100570000303030300000303030303030303030351
:100580000000030300000001030300000000030358
:100590000303030303030300000303030303030331
:1005A0000303030000030300000000000303000036
:1005B000000000000303000000000000030300002F
:1005C000010303030303030301000003030000000E
:1005D000000303000000000000005C54547400009D
:1005E0007C54544400007C14141C000078141478CB
:1005F00000007814345C0000781414780004047C43
:10060000040400007C54544400000000007C1414D6
:100610001C00007814345C000038444438000004A6
:10062000047C040400003844443800007C08107C3A
:1006300000005C545474000000007814147800002A
:100640007C08107C00007C4444380000000000005E
:100650000000000000000000003E2A2A2200003EA8
:1006600020202000003E2A2A2200003E22222200D2
:100670000002023E020200003C0A1A2E00001C2268
:10068000221C00003E04083E00002E2A2A3A0000E8
:100690002E2E0000000000000000000000000000FE
:1006A00000000000000000001F1054381000788483
:1006B000327A7A32847800000000000000000000E6
:1006C000000000000000000000000000000000002A
:1006D000000000000000000000000000000000001A
:1006E000000000000000000000000000003F20208B
:1006F00020A87020007884323232328478000000E2
:1007000000000000000000000000000000000000E9
:10071000000000000000F8F89898F8F80000E0E009
:100720009898F8F80000F8F8D8D818180000F8F9E8
:10073000D9D9D9D80000F8F8D8D8D8D80000000006
:10074000E0E098989898E0E0000000007878780061
:100750000000000000000000000000000000000099
:100760000000000000000000000000000000000089
:100770000000000000000101010100000000000075
:100780000000000000000000000000000000000069
:100790000000000000070701010101000007070138
:1007A0000107060000070706060606000006060603
:1007B00006070700000606060607070000000007F8
:1007C00007010101010707000000000606060000FE
:1007D0000000000000080B000202020100090400F2
:1007E000000102020000052400100105240101019E
:1007F00004240206052406000107058103100040B9
:1008000009040100020A000000070502024000007E
:10081000070583024000000403090412010002EFEF
:10082000020140412336800001010203014172644C
:1008300075696E6F204C4C430041726475696E6F30
:10084000204C656F6E6172646F0008083C42999994
:100850009999423C3C4299BDBD99423C0000000040
:10086000003E5B4F5B3E3E6B4F6B3E1C3E7C3E1C36
:10087000183C7E3C181C577D571C1C5E7F5E1C007C
:10088000183C1800FFE7C3E7FF0018241800FFE733
:10089000DBE7FF30483A060E2629792926407F05F6
:1008A0000507407F05253F5A3CE73C5A7F3E1C1C0C
:1008B00008081C1C3E7F14227F22145F5F005F5FCC
:1008C00006097F017F006689956A606060606094B8
:1008D000A2FFA29408047E040810207E20100808BD
:1008E0002A1C08081C2A08081E101010100C1E0CC8
:1008F0001E0C30383E3830060E3E0E06000000005A
:100900000000005F00000007000700147F147F1440
:10091000242A7F2A12231308646236495620500085
:1009200008070300001C2241000041221C002A1C71
:100930007F1C2A08083E080800807030000808085C
:100940000808000060600020100804023E5149457C
:100950003E00427F400072494949462141494D339A
:100960001814127F1027454545393C4A4949314101
:10097000211109073649494936464949291E0000CF
:100980001400000040340000000814224114141424
:100990001414004122140802015909063E415D5910
:1009A0004E7C1211127C7F494949363E4141412219
:1009B0007F4141413E7F494949417F090909013E43
:1009C000414151737F0808087F00417F410020406A
:1009D000413F017F081422417F404040407F021C7C
:1009E000027F7F0408107F3E4141413E7F09090993
:1009F000063E4151215E7F0919294626494949325F
:100A000003017F01033F4040403F1F2040201F3F24
:100A10004038403F631408146303047804036159A9
:100A2000494D43007F4141410204081020004141EB
:100A3000417F040201020440404040400003070897
:100A40000020545478407F28444438384444442893
:100A5000384444287F385454541800087E0902183A
:100A6000A4A49C787F0804047800447D40002040C2
:100A7000403D007F1028440000417F40007C047806
:100A800004787C080404783844444438FC1824244E
:100A90001818242418FC7C080404084854545424CE
:100AA00004043F44243C4040207C1C2040201C3C4B
:100AB0004030403C44281028444C9090907C446442
:100AC000544C4400083641000000770000004136D5
:100AD000080002010204023C2623263C1EA1A1615B
:100AE000123A4040207A385454555921555579418D
:100AF0002154547841215554784020545579400C64
:100B00001E52721239555555593954545459395544
:100B10005454580000457C410002457D4200014587
:100B20007C40F0292429F0F0282528F07C545545F4
:100B3000002054547C547C0A097F49324949493287
:100B40003248484832324A4848303A4141217A3A9C
:100B500042402078009DA0A07D39444444393D4066
:100B600040403D3C24FF2424487E4943662B2FFC13
:100B70002F2BFF0929F620C0887E090320545479C1
:100B8000410000447D413048484A32384040227A92
:100B9000007A0A0A727D0D19317D2629292F28260F
:100BA0002929292630484D40203808080808080817
:100BB0000808382F10C8ACBA2F102834FA00007B70
:100BC000000008142A142222142A14089500220076
:100BD00095AA005500AAAA55AA55AA000000FF0030
:100BE000101010FF00141414FF001010FF00FF106D
:100BF00010F010F0141414FC001414F700FF00009F
:100C0000FF00FF1414F404FC141417101F10101F1D
:100C1000101F1414141F00101010F0000000001F0B
:100C2000101010101F10101010F010000000FF1016
:100C30001010101010101010FF10000000FF140012
:100C400000FF00FF00001F10170000FC04F4141444
:100C50001710171414F404F40000FF00F714141410
:100C600014141414F700F7141414171410101F1090
:100C70001F141414F4141010F010F000001F101FB3
:100C80000000001F14000000FC140000F010F01021
:100C900010FF10FF141414FF141010101F00000098
:100CA00000F010FFFFFFFFFFF0F0F0F0F0FFFFFF9C
:100CB0000000000000FFFF0F0F0F0F0F38444438F3
:100CC000447C2A2A3E147E02020606027E027E022E
:100CD00063554941633844443C04407E201E20064D
:100CE000027E020299A5E7A5991C2A492A1C4C728A
:100CF00001724C304A4D4D303048784830BC625A11
:100D0000463D3E494949007E0101017E2A2A2A2AA0
:100D10002A44445F444440514A444040444A51407C
:100D20000000FF0103E080FF000008086B6B08363D
:100D300012362436060F090F0600001818000000AE
:100D40001010003040FF0101001F01011E00191D9D
:100D50001712003C3C3C3C00000000009614381583
:100D600011241FBECFEFDAE0DEBFCDBF11E0A0E05F
:100D7000B1E0E4E4FFE202C005900D92AA3AB107A7
:100D8000D9F726E0AAEAB1E001C01D92A83DB2075A
:100D9000E1F716E0CFEAD6E004C02197FE010E94F9
:100DA0006916CE3AD107C9F70E947A0F0C949517AD
:100DB0000C940000FC018485958597FD0BC09FB7BE
:100DC000F89482E08093E9008091F2009FBF90E068
:100DD000019608959FB7F89482E08093E90080918E
:100DE000F2009FBF90E008954091BC015091BD0179
:100DF0002091BA013091BB0142175307B4F490918E
:100E0000E8009570E1F39091E80092FD19C080939D
:100E1000F1008091BC019091BD0101968F739927DB
:100E2000892B19F48EEF8093E8008091BC0190919A
:100E3000BD0101969093BD018093BC0181E00895AE
:100E400080E00895DF92EF92FF920F931F93CF936C
:100E5000DF93D82E8A017B01E40EF51EEB01CE153F
:100E6000DF0571F0D7FE03C0FE01849101C08881C7
:100E70000E94F40621968111F2CF8FEF9FEF01C0FF
:100E8000C801DF91CF911F910F91FF90EF90DF90FC
:100E90000895615030F02091F100FC01208301960B
:100EA000F8CF289884E68093C10108953FB7F8945D
:100EB0008091B6019091B701A091B801B091B901AC
:100EC00026B5A89B05C02F3F19F00196A11DB11DA5
:100ED0003FBFBA2FA92F982F8827820F911DA11DE0
:100EE000B11DBC01CD0142E0660F771F881F991F1D
:100EF0004A95D1F708950F931F93CF93DF931F92D5
:100F0000CDB7DEB782E0898342E450E065ED77E05B
:100F100080E80E9422070E94200DDC0112960D91AC
:100F20001C9113970115110589F0D801ED91FC91E1
:100F30000280F381E02DBE016F5F7F4FC8010995EC
:100F400097FD04C0F80100851185ECCF89810F90D1
:100F5000DF91CF911F910F9108951F920F920FB6BD
:100F60000F9211248F939F938091E1009091E10063
:100F7000937F9093E10083FF0FC01092E90091E00E
:100F80009093EB001092EC0092E39093ED0010929E
:100F9000C20198E09093F00082FF20C093E090930C
:100FA000E9009091F200992319F09AE39093E800F8
:100FB0009091BF01992339F09091BF019150909386
:100FC000BF01992389F19091C101992339F0909142
:100FD000C10191509093C101992341F184FF10C048
:100FE0008091E2008E7E81608093E2008091E1003A
:100FF0008F7E8093E1008091C0018E7E806111C060
:1010000080FF16C08091E2008E7E80618093E200B6
:101010008091E1008E7E8093E1008091C0018E7E00
:1010200081608093C00104C05D9ACDCF289AD6CF4D
:101030009F918F910F900FBE0F901F9018951F9248
:101040000F920FB60F921124CF92DF92EF92FF9280
:101050000F931F932F933F934F935F936F937F93C0
:101060008F939F93AF93BF93EF93FF93CF93DF93B0
:10107000CDB7DEB76C97DEBFCDBF1092E90080918F
:10108000E80083FFFBC168E0CE0145960E94490756
:1010900082EF8093E8008D8987FF05C09091E8007A
:1010A00090FFFCCF03C09EEF9093E800982F9076BE
:1010B00009F0C6C09E894F89588D2F89F88C9111EF
:1010C0000CC0803829F48091B4018093F10002C0F3
:1010D0001092F1001092F10045C1913051F481114C
:1010E00041C14130510509F03DC18091B4018D7F6E
:1010F0000BC0933061F4811135C14130510509F0C5
:1011000031C18091B40182608093B4012BC19530CC
:1011100049F48091E80080FFFCCF822F80688093A3
:10112000E30020C1963009F05EC00B8D1C8D22E0DB
:101130001092E9001092BD011092BC01F21232C06F
:101140001092BB011092BA010E947B0799E0BE0188
:101150006F5F7F4FDB01E92F1D92EA95E9F79983D5
:10116000FA8291E09E8390EA98879AEF998720917E
:10117000BC013091BD01275F3F4F3C832B838D83A2
:101180001092E9001092BD011092BC011093BB01B6
:101190000093BA0149E050E080E00E9422070E94DB
:1011A0007B07E0C01093BB010093BA010E94200DA1
:1011B000DC0112960D911C9113970115110509F48C
:1011C000BBC0D801ED91FC910480F581E02DBE01FA
:1011D0006B5E7F4FC8010995009709F0C7C0F80101
:1011E00000851185EACF973009F445C1983021F484
:1011F00081E08093F100B6C0993009F0B3C08370EC
:1012000009F039C1E9E1F1E081E031E096E32081C4
:10121000211109C08EE78093EA001092EA008F89BD
:101220008093C2019FC08093E9003093EB0021912D
:101230002093EC009093ED008F5F873041F7EACF69
:101240008B8D9C8D1092E9001092BD011092BC0113
:101250009093BB018093BA01898D811153C08E890F
:101260009D89913A49F4813209F005C147E050E087
:1012700066E071E080E0BBC0913209F0FCC08332CF
:1012800069F48F89988DA0E0B0E08093020190937B
:101290000301A0930401B093050164C0803269F496
:1012A0008091E80082FFFCCF67E086E091E00E9439
:1012B00049078BEF8093E80055C0823209F052C095
:1012C0008F8980930D01EEEFFFE7859194918B3F1D
:1012D0009C4D19F0E0E0F8E002C0EEEFFAE08091FA
:1012E000060190910701A0910801B0910901803B8E
:1012F0009440A105B10509F09EC080910D0180FFC9
:1013000079C099C00E94200DFC0102811381011552
:10131000110509F4B0C0D801ED91FC910190F08164
:10132000E02DBE016B5E7F4FC801099581111AC087
:10133000F80100851185EBCFF1E0FF1609F44EC0EE
:10134000F3E0FF1298C08F89882309F44AC08230E5
:1013500089F440E860E189E398E00E944E14882314
:1013600009F489C08EEF8093E80088C0181619062A
:10137000CCF381C0813029F440E86BE08DE298E045
:10138000ECCF833009F077C00E94200DDC0112966B
:10139000ED90FC9013978E010F5F1F4F6801E114D1
:1013A000F10479F0D701ED91FC910680F781E02DF1
:1013B000B801C7010995080F111DF701E084F184F8
:1013C000EECFD8011C92F60101900020E9F7319789
:1013D000BF016C197D0940E0C601BFCF6BE178E029
:1013E00002C067E178E0FB01449150E080E80E9490
:1013F0002207B8CFEE3F2AE0F20751F080819181B9
:101400008737A7E79A0721F09093FF0A8093FE0A97
:1014100087E797E791838083809160008093BE0186
:101420009BE088E10FB6F894A895809360000FBE0A
:101430009093600097CF808191818737974709F01B
:1014400091CFA89580916000886180936000809121
:10145000BE0180936000EE3FBAE0FB0739F0809157
:10146000FE0A9091FF0A918380837CCF1092FF0A3D
:101470001092FE0A77CF81E28093EB006C960FB654
:10148000F894DEBF0FBECDBFDF91CF91FF91EF91FA
:10149000BF91AF919F918F917F916F915F914F918C
:1014A0003F912F911F910F91FF90EF90DF90CF9080
:1014B0000F900FBE0F901F9018958F929F92AF9232
:1014C000BF92CF92DF92EF92FF926B017C010E945C
:1014D00056074B015C01C114D104E104F104F1F0A1
:1014E0000E945607DC01CB0188199909AA09BB099A
:1014F000883E9340A105B10570F321E0C21AD108DE
:10150000E108F10888EE880E83E0981EA11CB11C4A
:10151000C114D104E104F10419F7DDCFFF90EF907D
:10152000DF90CF90BF90AF909F908F9008951F92C3
:101530000F920FB60F9211242F933F938F939F9387
:10154000AF93BF938091B0019091B101A091B2018E
:10155000B091B3013091B50123E0230F2D3720F472
:101560000196A11DB11D05C026E8230F0296A11DFD
:10157000B11D2093B5018093B0019093B101A09368
:10158000B201B093B3018091B6019091B701A091DF
:10159000B801B091B9010196A11DB11D8093B601AA
:1015A0009093B701A093B801B093B901BF91AF91E7
:1015B0009F918F913F912F910F900FBE0F901F9091
:1015C00018952091C201211103C08FEF9FEF08955C
:1015D0005FB7F89422E02093E9002091F20030E018
:1015E0001216130614F421E030E0422FFC0184E6C9
:1015F000415038F028988093C1019091F100919367
:10160000F7CF2115310521F08091F200882319F0E0
:101610005FBFC90108958BE68093E800F9CF2FB72B
:10162000F89483E08093E9009091E800892F80721C
:1016300095FF04C09091F20080E4891B2FBF0895AC
:10164000CF93DF931F92CDB7DEB76983DC01ED91B5
:10165000FC910280F381E02D41E050E0BE016F5F1C
:101660007F4F09950F90DF91CF91089583E080938C
:10167000E9008091F200882319F08AE38093E80062
:1016800008950E940F0B90E00895CF93DF931F926F
:10169000CDB7DEB7FC018485958597FD05C02FEF9A
:1016A0003FEF358724870BC0CE0101960E94E10AE7
:1016B000019719F4898190E002C08FEF9FEF0F909E
:1016C000DF91CF9108950F931F93CF93DF931F92D4
:1016D000CDB7DEB78C01FC018485958597FF0EC0E0
:1016E000CE0101960E94E10A019719F4898190E0E8
:1016F00002C08FEF9FEFF80195878487F8018485FA
:1017000095850F90DF91CF911F910F910895CF9301
:10171000DF93EC010E94991522E030E040E050E0B8
:101720000E94061679836883DF91CF9108958F9286
:101730009F92AF92BF92CF92DF92EF92FF920F9360
:101740001F93CF93DF936C017B018A0180910D0180
:10175000882309F45CC08091C201882309F457C032
:101760008091C00180FF05C08091E000826080937D
:10177000E000E801B12C8AEFA82E93E0892E2AE33D
:10178000922E209711F4BB20D9F10E940F0B8111EA
:101790000AC0AA94AA20D9F161E070E080E090E04C
:1017A0000E945D0AEECF282F30E0C217D3070CF459
:1017B0008C2F9FB7F8948092E9002091E80025FFD4
:1017C0001DC0282F30E0C21BD30BF701815020F041
:1017D00041914093F100FACFE20EF31EBB2019F0C5
:1017E0009092E8000AC08091E80085FD07C09092C1
:1017F000E800BB24B394209709F0B12C9FBFC1CF60
:101800005D9884E68093BF011016110644F081E0D4
:1018100090E0F6019383828380E090E001C0C801EC
:10182000DF91CF911F910F91FF90EF90DF90CF90BC
:10183000BF90AF909F908F900895FC01618D728D45
:1018400020814AE458E08CE390E00C94780ECF932A
:10185000DF93EC010E946D0F85FF08C0898D9A8D82
:101860004B9721F488819981892B69F00E946D0F33
:10187000298D3A8D86FF0FC02B31310561F48881A7
:101880009981019741F48CE99FEF9A8F898FCE015E
:101890000E94870B19C02B313105B1F488819981E1
:1018A000019729F0898D9A8D4B9771F405C00E949C
:1018B0006D0F85FD0CC0F6CF88819981892B21F4AD
:1018C0000E946D0F86FD03C080E090E002C08FEFA4
:1018D0009FEFDF91CF910895FC01218D328D2B3147
:1018E000310524F42F5F3F4F328F218F089580E020
:1018F000E3ECF1E081118FEF0024819381938193D8
:1019000081930394D1F7E1E6F6E0128A118A108AF6
:1019100017860895009769F0FC0101900020E9F70F
:101920003197AF01481B590BBC0181E696E00C943E
:10193000340D80E090E008958F929F92AF92BF9215
:10194000CF92DF92EF92FF920F931F93CF93DF938B
:10195000CDB7DEB7A1970FB6F894DEBF0FBECDBFEF
:101960006C01990FEE08FF08F7FE2BC06DE281E6CF
:1019700096E00E945E0D8C0122273327A9012C19C5
:101980003D094E095F0919A2CE0181967C019AE0BA
:10199000892E912CA12CB12CCA01B901A501940169
:1019A0000E943816605DF70162937F0121153105B1
:1019B0004105510589F7CF010E948A0C800F911FC4
:1019C0001DC0A701960119A28E010F5D1F4F8AE06D
:1019D000C82ED12CE12CF12CCA01B901A701960126
:1019E0000E943816605DF80162938F012115310560
:1019F0004105510589F7CF010E948A0CA1960FB6C7
:101A0000F894DEBF0FBECDBFDF91CF911F910F9134
:101A1000FF90EF90DF90CF90BF90AF909F908F900E
:101A20000895E3ECF1E0A0E0B8E000800EBC811185
:101A3000012C1197A0FDFDCF0192B9F70DB40895C7
:101A400080917C0681110DC082E08093780684E04D
:101A50008093790610927B0610927A0681E080933B
:101A60007C0688E796E00895CF92DF92EF92FF928E
:101A70000F931F93CF93DF936C017A018B01C0E02A
:101A8000D0E0CE15DF0581F0D8016D918D01D60132
:101A9000ED91FC910190F081E02DC6010995892B13
:101AA00011F02196EECF7E01C701DF91CF911F91FA
:101AB0000F91FF90EF90DF90CF9008952F923F927B
:101AC0004F925F926F927F928F929F92AF92BF924E
:101AD000CF92DF92EF92FF920F931F93CF93DF93FA
:101AE000CDB7DEB728970FB6F894DEBF0FBECDBFD7
:101AF0009D838C836A30A1F4DC0155962C91559717
:101B000051968D919C915297B8E02B9F800D911D1D
:101B10001124EC81FD81928B818B108A1786C6C0BF
:101B20006D3009F4C3C0AC81BD811F968D919C912D
:101B3000509780389105BCF0EC81FD812589422FBA
:101B400050E087859089F6E02F9F800D911D11242C
:101B5000AC81BD8150969C938E931F9756962C9185
:101B600021118FC0A3C0EC81FD81E188F288F0E4EF
:101B7000EF16F1040CF7AC81BD815596BC91BE8384
:101B80009C01E5E0BE9F200D311D112412161306A5
:101B90009CF6CB2ED12C970158E0B59F200D311D1E
:101BA00011241216130644F6AC81BD8154965C9044
:101BB000549753964C90B5E06B9FF00111249F0110
:101BC000245A374F38872F83912C30E1732EEF81C1
:101BD000F8858490F5E09F1201C0812C870128E0F0
:101BE000622E80FE02C0542D01C0552D511103C03C
:101BF000541409F433C09C01F52FF170322E622F7A
:101C0000681B4E81641750F5B801A62FA01B5E819A
:101C1000A51708F520383105D8F460347105C0F4F3
:101C20005B01A501E1E041FDE4E040FDEE0F42FD76
:101C3000E295487F749ED0011124A30DBA83A98335
:101C4000AD53BE4FBC90BE2AF11101C0BE26BC925E
:101C50006F5F7F4FDACF2F5F3F4FD0CF86946A946C
:101C60000C0D1D1D6110BDCF93948C0D9D1D2F81FA
:101C700038852F5F3F4F38872F8336E09312A7CFE9
:101C80005BCF6AEF64039001659F300D11242058EB
:101C90003F4F2817390754F48C819D81DC01ED9169
:101CA000FC910190F081E02D6AE0099581E090E0DF
:101CB00028960FB6F894DEBF0FBECDBFDF91CF914F
:101CC0001F910F91FF90EF90DF90CF90BF90AF905A
:101CD0009F908F907F906F905F904F903F902F904C
:101CE00008950895089580E090E008950E94901767
:101CF0008F929F92AF92BF92CF92DF92EF92FF921C
:101D00000F931F93CF93DF9300D0CDB7DEB7DC01E5
:101D10004115510509F4CBC0FA01B4903196949164
:101D20004E5F5F4F8B2C912C2223D9F0E1E0F0E045
:101D3000892F877011F4E0E0F0E0892F8695869571
:101D40008695E80FF11DE89D7001E99DF00CF89D66
:101D5000F00C11242E9DF0012F9DF00D11244E0F3B
:101D60005F1F7401EA0EFB1E1E141F040CF09FC0BF
:101D7000A038B1050CF09BC09B01290F311D121634
:101D800013060CF094C0603471050CF090C041153E
:101D9000510509F48CC0F62FF770CF2E9B0177FF09
:101DA00002C0295F3F4F83E0359527958A95E1F77B
:101DB000F22F77FF04C0CC2011F0FFEFF20FB7FF36
:101DC00005C0662777276A1B7B0B02C060E070E0C6
:101DD00000E8E016F10424F080E8D82EDA1A01C0F9
:101DE000DB2CD61A2F2F0F2E000C330BFF3F1CF4C9
:101DF000F22EF09401C0F12CE1E0892F877009F4F4
:101E0000E0E09695969596959E0F290F311D293005
:101E1000310514F098E09F1B8F2D8F0F9B01BF9C05
:101E2000200D311D1124420F531F21E030E07901B4
:101E30000C2C02C0EE0CFF1C0A94E2F79D01182F37
:101E400000E81003200D311D1124260F371F2D53DC
:101E50003E4F9F0F981759F1D9018A01602F641BDB
:101E60006D15F8F4F801B490BE9CB001BF9C700DE4
:101E700011247A83698387FD03C07C91672B6C935F
:101E8000CC2059F087304CF45D01F0E8AF0EB11C66
:101E9000F50170816A81672B60830F5F1F4F119678
:101EA000DDCF8F5F480D591D20583F4FD3CF0F9086
:101EB0000F90DF91CF911F910F91FF90EF90DF90E6
:101EC000CF90BF90AF909F908F9008952D9A0895D6
:101ED000BC0180E090E00C945D0A8FB18095807F1A
:101EE000669B88601C9B846008950C94F01580E0CC
:101EF0000C94110D789484B5826084BD84B58160A2
:101F000084BD85B5826085BD85B5816085BD8091C4
:101F10006E00816080936E0010928100809181003C
:101F20008260809381008091810081608093810034
:101F30008091800081608093800080919100826018
:101F400080939100809191008160809391008091B5
:101F500090008160809390008091C10084608093A4
:101F6000C1008091C10082608093C1008091C10056
:101F700081608093C1008091C30081608093C30021
:101F80008091C00082608093C0008091C200816017
:101F90008093C20080917A00846080937A0080915F
:101FA0007A00826080937A0080917A0081608093C9
:101FB0007A0080917A00806880937A001092C20142
:101FC0001092B4011092C0018091D700816080937B
:101FD000D70080EA8093D80089B5806189BD89B532
:101FE000826089BD09B400FEFDCF61E070E080E051
:101FF00090E00E945D0A8091D8008F7C8061809380
:10200000D8008091E000807F8093E0008091E10023
:102010008E7E8093E1008DE08093E200559A209AB5
:1020200081EC80937C0085B1806F85B984B1877E17
:1020300084B984B1876E84B95E9A5F988AB1806DE5
:102040008AB9769A6E9881B3806F81BB899880B384
:102050008D7080BB80E58CBD81E08DBD85E090E01A
:102060000E94680F5F9A85E090E00E94680F5E987A
:102070005C98ECE5F1E089E691E024912EBD00004A
:102080000DB407FEFDCF31968E179F07B1F75C9A0E
:1020900081E8809364008091650081608093650091
:1020A00085E696E00E94770F0E946D0F87FF24C09F
:1020B0005C9885EA8EBD00000DB407FEFDCF5C9AEA
:1020C0002E982F982D9880916400806280936400F0
:1020D00081E083BF889513BEFCCF2D980E946D0FC1
:1020E0008478843871F00E946D0F8471843131F1ED
:1020F00088EC90E00E94680F0E946D0F82FDEDCF8A
:102100003AC00E94660F88EC90E00E94680F2F98FA
:1021100082E090E00E94F0158F3F29F06FEF82E09F
:1021200090E00E94F81584EF91E00E94680F2F9ACA
:102130000E946D0F84788438D9F3D5CF0E94660F42
:1021400088EC90E00E94680F2E9882E090E00E9458
:10215000F015882329F060E082E090E00E94F815F5
:1021600084EF91E00E94680F2E9A0E946D0F847197
:102170008431D9F3BDCF0E94660F82E090E00E94C7
:10218000750F882319F03E9A3F9A02C03E983F98F7
:1021900081E090E00E94750F282F2470D22E81FFDD
:1021A00084C021112E98C0EFDFEF08E010E00E94FC
:1021B0006D0F86FF05C02E9A2F9A0E94660F75C07C
:1021C000DD2029F0C430D10511F42E9A2F9881E03A
:1021D0000E94110D9E01D7FF04C0222733272C1B1C
:1021E0003D0B27703327CE01D7FD0796E3E0959589
:1021F0008795EA95E1F7D7FF05C00197A801421B33
:10220000530B9A01AC015695542F44275795479587
:102210004D535E4FA0E0B0E04801821A930A8F3F11
:102220006FEF96074CF40196A85ABF4F40585F4F86
:10223000A03BB105A1F71EC07A01E4E9EE0EF11C46
:102240005A0160E070E08F3FFFEF9F0709F4F2C290
:10225000FB01EA0FFB1FE455FF4FE491F0E03F0163
:10226000022E01C0660C0A94EAF7F501C4886C28B6
:10227000648AE0C285E696E00E94770F8FE090E0E6
:102280000E94680F2196C931D10509F090CFDD2059
:1022900011F02F9A2D9880E991E00E94680F0E941A
:1022A000660F81E696E00E94F71482E390E00E94B8
:1022B000680F0E946D0F8111F8CF84E180936C0646
:1022C0008DED9FEF90932E0680932D0689EC9FEF66
:1022D000909313068093120685EB9FEF9093F80579
:1022E0008093F7058CE99FEF9093DD058093DC05E3
:1022F0004BEF242E33243A9406EF1FEF51EF452E77
:1023000055245A946CEEA62EBB24BA9498EDE92E6F
:10231000FF24FA9424EC622E77247A9430EBC32EB7
:10232000DD24DA948FB7F8944091B0015091B10157
:102330006091B2017091B3018FBF80916D06F42F4F
:10234000F81B8F2F90916E06992329F0F0936F065A
:1023500010926E0667C290916C06F91748F48F5F71
:10236000891708F05FC281E083BF889513BE5AC207
:1023700081E080936E0640936D068091680690918F
:102380006906019690936906809368060E94770C0F
:102390008091AE019091AF018130910509F442C066
:1023A0008230910509F4DFC1892B09F02FC220E0AA
:1023B0004BED53E060E070E080E090E00E94780E2A
:1023C00010924906109248068DED9FEF90932E06CD
:1023D00080932D0689EC9FEF90931306809312064D
:1023E00085EB9FEF9093F8058093F7058CE99FEFBD
:1023F0009093DD058093DC051092AB011092AA0149
:10240000C1E0D0E0D0930101C09300010E946D0FA4
:1024100083FFFCC18091AC019091AD01892B09F43F
:102420002BC2F4C10E94770C8091AA019091AB015C
:1024300001969093AB018093AA01109271061092BD
:10244000700610927306109272060E949C0C40E572
:1024500050E05093710640937006109273061092EC
:10246000720680910001909101010E949C0C20E075
:1024700049EE52E060E070E081E390E00E94780E67
:1024800020E047E652E060E170E088E090E00E94E2
:10249000780E20E045EE51E060E170E088E590E0E4
:1024A0000E94780E8FE296E00E941D0C84E196E077
:1024B0000E941D0C89EF95E00E941D0C8EED95E0A9
:1024C0000E941D0C83EC95E00E941D0C8FE296E0AB
:1024D0000E946C0C84E196E00E946C0C89EF95E000
:1024E0000E946C0C8EED95E00E946C0C83EC95E0E4
:1024F0000E946C0C8091AA019091AB01843F51E045
:10250000950719F51093490600934806F0922E0698
:10251000E0922D067092130660921206D092F80592
:10252000C092F70581EA9FEF9093DD058093DC056B
:102530000E94770C1092710610927006109273062A
:102540001092720681E591E074C0883EE3E09E0738
:1025500009F51093490600934806B0922E06A09202
:102560002D06F0921306E09212067092F805609222
:10257000F705D092DD05C092DC050E94770C109221
:1025800071061092700610927306109272068BE517
:1025900091E04FC08C3DF5E09F0729F51093490667
:1025A00000934806B0922E06A0922D0642EE5FEFF1
:1025B0005093130640931206F092F805E092F70547
:1025C0008EEC9FEF9093DD058093DC050E94770CE5
:1025D0001092710610927006109273061092720695
:1025E00085E691E026C0803D974009F040C03092DA
:1025F00049062092480610932E0600932D0650920D
:10260000130640921206B092F805A092F70547EE25
:102610005FEF5093DD054093DC050E94770C10922C
:1026200071061092700610927306109272068FE671
:1026300091E00E948A0C20E047EA51E06CE070E0F3
:1026400082E390E00E94780E85E696E00E94770F84
:1026500068E873E180E090E00E945D0A80910001EB
:1026600090910101019690930101809300012091C6
:1026700048063091490680912D0690912E062B3107
:102680003105C9F48B31910509F443C0209112063C
:10269000309113062B313105E1F12091F70530918E
:1026A000F8052B313105A9F12091DC053091DD05CC
:1026B0002B31310571F120911206309113064B97A1
:1026C00079F42B31310529F18091F7059091F805C6
:1026D0004B97F9F08091DC059091DD054B97C9F09F
:1026E0008091F7059091F8052B31310551F48B312C
:1026F000910579F02091DC053091DD052B31310514
:1027000041F04B9769F48091DC059091DD054B9782
:1027100039F482E090E09093AF018093AE0176C0EF
:102720008FE296E00E94270C019699F384E196E0EF
:102730000E94270C019669F389EF95E00E94270C0F
:10274000019639F38EED95E00E94270C019609F36E
:1027500083EC95E00E94270C0196D9F285E696E07D
:102760000E94770F53C00E94770CC1E0D0E0D09355
:102770007106C0937006109273061092720680E87C
:1027800091E00E948A0C20E049E651E068E270E0A6
:1027900089E590E00E94780ED0937106C093700690
:1027A00082E3882E912C90927306809272068CE8B8
:1027B00091E00E948A0C909271068092700690922D
:1027C00073068092720680910001909101010E942F
:1027D0009C0CD0937106C09370068EE190E09093AC
:1027E00073068093720684E991E00E948A0C85E664
:1027F00096E00E94770F0E946D0F83FF07C08091C3
:10280000AC019091AD01892B09F43FC00E946D0F7E
:1028100083FD04C01092AD011092AC0185E696E0F4
:102820000E94770F80E090E0892B09F47BCD0E9415
:1028300000006CCD2115310591F0FB01EA0FFB1F63
:10284000E455FF4FE491F0E03F01082C02C075947D
:1028500067940A94E2F7F701C0806C2860826F5F8A
:102860007F4FFFEFEF1AFF0AEFEFAE1ABE0A68358F
:10287000710509F0E8CCD7CCD093AD01C093AC0181
:10288000D093AF01C093AE01C1CFD093AD01C0933F
:10289000AC011092AF011092AE01B8CFDF92EF926F
:1028A000FF920F931F93CF93DF93D82EF92EE42E30
:1028B000062F10E0C8010196880F0E94F40683E0FD
:1028C0000E94F406CD2DDF2D0C0F1D1FC017D10760
:1028D00089F0E7FE03C0FE01849101C088810E9457
:1028E000F406F82E80E00E94F4068F2121968111D3
:1028F000EDCF01C081E0DF91CF911F910F91FF904B
:10290000EF90DF900895CF93DF93EC0102960E9441
:10291000DB140E94991522E030E040E050E00E9474
:10292000061679836883DF91CF910895E4E8F6E095
:102930001382128288EE93E0A0E0B0E08483958356
:10294000A683B7838FE291E0918380838FEF9FEF1F
:102950009587848781E696E00E94DB148AE496E0FE
:102960000E94DB148FE296E00E94831484E196E0DB
:102970000E94831489EF95E00E9483148EED95E008
:102980000E94831483EC95E00C948314CF93DF931F
:10299000009741F0EC010E94C614CE01DF91CF9167
:1029A0000C940717DF91CF9108950E94D5148AE403
:1029B00096E00C940717FC0113821282118612868E
:1029C00080E1838710861782158681E491E09183E8
:1029D00080838FE491E095838483108A1786128A1E
:1029E000118A81E0838B148A858B168A08950F9350
:1029F0001F93CF93DF93EC0181E090E00E94750F6D
:102A000080FF2EC08AE090E00E94750F9FEF980F24
:102A10009E3F30F522E330E0388B2F8728E330E00B
:102A20003A8B298B0BE010E0E881F9810190F0816D
:102A3000E02D682FCE010995C8010E94750F0F5F28
:102A40001F4F0131110581F7CE0104960E94770FC7
:102A500088EE93E0DF91CF911F910F910C94680F56
:102A6000DF91CF911F910F91089504970C94F71463
:102A700083EC95E00E94C6148EED95E00E94C6148A
:102A800089EF95E00E94C61484E196E00E94C61486
:102A90008FE296E00E94C6140C94D5148F929F92F8
:102AA000AF92BF92CF92DF92EF92FF92CF93DF93DC
:102AB000EC01688179818A819B81611571058105AD
:102AC000910521F464E279ED8BE597E02DE133EF98
:102AD00041E050E00E94061649015A019B01AC01F9
:102AE000A7EAB1E40E9425166B017C01ACEEB4EFBD
:102AF000A50194010E943316DC01CB018C0D9D1DB4
:102B0000AE1DBF1DB7FF03C00197A109B048888360
:102B10009983AA83BB83BC01CD019F77DF91CF91BD
:102B2000FF90EF90DF90CF90BF90AF909F908F90ED
:102B300008958F929F92AF92BF92CF92DF92EF92C1
:102B4000FF9260910E0170910F01809110019091A0
:102B50001101611571058105910521F464E279ED9A
:102B60008BE597E02DE133EF41E050E00E9406163F
:102B700049015A019B01AC01A7EAB1E40E94251664
:102B80006B017C01ACEEB4EFA50194010E943316F9
:102B9000DC01CB018C0D9D1DAE1DBF1DB7FF03C019
:102BA0000197A109B04880930E0190930F01A09363
:102BB0001001B0931101BC01CD019F77FF90EF9000
:102BC000DF90CF90BF90AF909F908F9008956093CB
:102BD0000E0170930F0180931001909311010895DD
:102BE000F999FECF92BD81BDF89A992780B50895D5
:102BF000262FF999FECF1FBA92BD81BD20BD0FB619
:102C0000F894FA9AF99A0FBE01960895052E97FB4B
:102C10001EF400940E941D1657FD07D00E9438161E
:102C200007FC03D04EF40C941D165095409530953A
:102C300021953F4F4F4F5F4F089590958095709528
:102C400061957F4F8F4F9F4F08950E945A16A59F01
:102C5000900DB49F900DA49F800D911D1124089597
:102C6000B7FF0C9425160E942516821B930B08951E
:102C7000A1E21A2EAA1BBB1BFD010DC0AA1FBB1F80
:102C8000EE1FFF1FA217B307E407F50720F0A21BF2
:102C9000B30BE40BF50B661F771F881F991F1A945F
:102CA00069F760957095809590959B01AC01BD0189
:102CB000CF010895A29FB001B39FC001A39F700DE3
:102CC000811D1124911DB29F700D811D1124911D34
:102CD0000895EE0FFF1F0590F491E02D09940F93D6
:102CE0001F93CF93DF938230910510F482E090E040
:102CF000E091D606F091D70620E030E0A0E0B0E009
:102D0000309719F140815181028113814817590789
:102D1000C8F08417950769F4109731F012960C9358
:102D2000129713961C9327C00093D6061093D706CC
:102D300022C02115310519F04217530718F49A01E2
:102D4000BD01EF01DF01F801DBCF21153105F9F0FD
:102D5000281B390B2430310580F48A819B81611551
:102D6000710521F0FB019383828304C09093D70601
:102D70008093D606FE01329644C0FE01E20FF31F97
:102D80008193919322503109398328833AC020914D
:102D9000D4063091D506232B41F4209114013091B3
:102DA00015013093D5062093D4062091120130915D
:102DB00013012115310541F42DB73EB7409116019D
:102DC00050911701241B350BE091D406F091D506E4
:102DD000E217F307A0F42E1B3F0B2817390778F0F2
:102DE000AC014E5F5F4F2417350748F04E0F5F1F51
:102DF0005093D5064093D4068193919302C0E0E0AE
:102E0000F0E0CF01DF91CF911F910F910895CF9303
:102E1000DF93009709F481C0FC013297138212827C
:102E2000A091D606B091D706109781F42081318108
:102E3000820F931F2091D4063091D50628173907A9
:102E400051F5F093D506E093D40667C0ED0120E07C
:102E500030E0CE17DF0740F44A815B819E014115C7
:102E60005105F1F0EA01F5CFD383C283408151814E
:102E7000840F951FC817D90759F488819981840F49
:102E8000951F0296918380838A819B81938382839D
:102E90002115310529F4F093D706E093D6063DC0FD
:102EA000E901FB83EA8349915991C40FD51FEC17BF
:102EB000FD0761F480819181840F951F0296E901DD
:102EC00099838883828193819B838A83E0E0F0E009
:102ED00012968D919C911397009719F0FD01DC01DA
:102EE000F7CF8D919C9111979D012E5F3F4F820FDF
:102EF000931F2091D4063091D5062817390769F41D
:102F0000309729F41092D7061092D60602C0138289
:102F10001282B093D506A093D406DF91CF91089585
:102F200081E090E0F8940C94951716E0CFEAD6E093
:102F300004C0FE010E9469162196C03BD107C9F763
:042F4000F894FFCF33
:102F44000100FFFFFFFF00E100000000000001009E
:102F540000000000D806800000C18081000000004D
:102F6400000000760E340D730E720E000000002077
:102F74000B970B410B360BDA06450B630B00000075
:102F8400005E0D340D730E720EF714FCFF00003555
:102F9400154C6576656C20322021004C6576656C95
:102FA40020332021004C6576656C20342021004CB0
:102FB400617374204C6576656C203A2035202100BD
:102FC40047616D65206F7665722021004C657665DA
:102FD4006C203A0050726573732074686520412038
:0A2FE400627574746F6E2021000006
:00000001FF
