:100000000C94B0060C94D8060C94D8060C94D80620
:100010000C94D8060C94D8060C94D8060C94D806E8
:100020000C94D8060C94D8060C94020A0C94740A0A
:100030000C94D8060C94D8060C94D8060C94D806C8
:100040000C94D8060C94D8060C94D8060C94D806B8
:100050000C94D8060C94D8060C94D8060C94EC0C8E
:100060000C94D8060C94D8060C94D8060C94D80698
:100070000C94D8060C94D8060C94D8060C94D80688
:100080000C94D8060C94D8060C94D8060C94D80678
:100090000C94D8060C94D8060C94D8060C94D80668
:1000A0000C94D8060C94D8060C94D806F0F89C8EC4
:1000B0008783878E9CF8F00000FEFF030303030391
:1000C000070EFCF80000FEFF0303030303070EFC0A
:1000D000F80000FFFF00000000000000FFFF00002C
:1000E000FEFF8383838383C7EE7C380000F8FC0E19
:1000F00007030303070EFCF800003F7FE0C0808089
:10010000C0E07F3FFFFF01010101010101FFFF008E
:1001100000FFFF0C0C0C0C1C3E77E3C100007FFFBE
:10012000C0C0C0C0C0E0703F1F00001F3F70E0C0F3
:10013000C0C0E0703F1F00007FFFC1C1C1C1C1E36B
:10014000773E1C00001F3F70E0C0C0C0E0703F1F42
:10015000000000000001FFFF01000000D5F08D1439
:10016000A1C881CFD9F1AF20001414000000000015
:10017000788404040808040484780000000000E087
:1001800010C8E8E8C810E102040402E110C8C8C8B9
:10019000C810E0010204050504020100000000018E
:1001A0000204040404020114140000000000000012
:1001B0008040602090C8A8948C00000000000000DF
:1001C0000000C2A39A4620100808040201000000A3
:1001D000000000000000000000000000000000001F
:1001E00000000000002020000000000000000000CF
:1001F0000000000000FFFFFFFF0000000000000003
:1002000000000000000000C0C0C0C0C0C0C0C0C02E
:10021000C0C0C0C0C0FFFFFFFFC0C0C0C0C0C0C0E2
:10022000C0C0C0C0C0C0C003030303030303030373
:100230000303030303FFFFFFFF030303030303039E
:100240000303030303030300000000000000000099
:100250000000000000FFFFFFFF00000000000000A2
:10026000000000000000002020000000000000004E
:10027000000000000000000000000000000000007E
:10028000000000000000000000C0C0C0C0C0C0C02E
:10029000C0C0C0C0C0C0C0C0C0C0C0C0C0C0C0C05E
:1002A000C0C0C0C0C0C0C0C0C00303030303030379
:1002B000030303030303030303030303030303030E
:1002C0000303030303030303030000000000000013
:1002D000000000000000000000000000000000001E
:1002E0000000000000000000001E3FFFFF000000B3
:1002F00000000000000000000000000000000000FE
:1003000000000000000000FFFFFFFF0000000000F1
:1003100000000000000000000000000000000000DD
:100320000000000000FFFFFFFF00000000000000D1
:1003300000000000000000000000000000000000BD
:10034000000000FFFFFFFF0000000000E0180402B3
:100350000201010101010102020418E00000000095
:1003600000FFFFFFFF0000000000030C10202040F2
:1003700040404040402020100C030000000000FFDF
:10038000FFFFFF0000000000000000000000000070
:1003900000000000000000000000000000FFFFFF60
:1003A000FF0000000000000000000000000000004E
:1003B0000000000000000000000000FFFF7F7F0041
:1003C000000000000000000000000000000000002D
:1003D0000000000000000000007F7F7F3F00000061
:1003E0000000FCFC8C8C8C8C8C8CFCFC0000F0F0F5
:1003F0008C8C8C8C8C8CF0F00000F8FCCCCCCCCCB1
:10040000FCFC0000000C0C0C0CFCFC0C0C0C0C009C
:1004100000FCFC0000FCFC0C0C0C0C0C0C0000FCA8
:10042000FC00000000000000FCFCCCCCCCCC0C0C90
:100430000000FCFCCCCCCCCCCCCC00004060301814
:1004400000000000000000000000000000000000AC
:10045000000000000000000000000000000000009C
:10046000009F9F818181818181818100009F9F8187
:1004700081818181819F1F00809F9F8383878F9EC1
:100480009C800000008080809F9F80800000000092
:100490009F9F80809F9F98989818189880809F9F12
:1004A000989898989800001F1F9898989898180006
:1004B000001999999999999F9F8080800000808068
:1004C00000000080808080808080000000808000AC
:1004D000000000808000000000000000000000001C
:1004E0001F1F191919191919F9F90000FFFF191916
:1004F00019190101010000FFFF010101013131F172
:10050000F10000FFFF7979F9F9DF8F00000000FFAB
:10051000FF313131310101010000FFFF0101010113
:100520003131F1F10000FEFE3131313131FEFE009A
:100530000001010101FFFF010101010000FFFF00B7
:1005400000FFFF0101010101FFFF0000FFFF0606A0
:100550001818FFFF0000000000000000000000036A
:100560000303030303030303030000030303030361
:100570000303030300000303030303030303030351
:100580000000030300000001030300000000030358
:100590000303030303030300000303030303030331
:1005A0000303030000030300000000000303000036
:1005B000000000000303000000000000030300002F
:1005C000010303030303030301000003030000000E
:1005D000000303000000000000005C54547400009D
:1005E0007C54544400007C14141C000078141478CB
:1005F00000007814345C0000781414780004047C43
:10060000040400007C54544400000000007C1414D6
:100610001C00007814345C000038444438000004A6
:10062000047C040400003844443800007C08107C3A
:1006300000005C545474000000007814147800002A
:100640007C08107C00007C4444380000000000005E
:100650000000000000000000003E2A2A2200003EA8
:1006600020202000003E2A2A2200003E22222200D2
:100670000002023E020200003C0A1A2E00001C2268
:10068000221C00003E04083E00002E2A2A3A0000E8
:100690002E2E0000000000000000000000000000FE
:1006A00000000000000000001F1054381000788483
:1006B000327A7A32847800000000000000000000E6
:1006C000000000000000000000000000000000002A
:1006D000000000000000000000000000000000001A
:1006E000000000000000000000000000003F20208B
:1006F00020A87020007884323232328478000000E2
:1007000000000000000000000000000000000000E9
:10071000000000000000F8F89898F8F80000E0E009
:100720009898F8F80000F8F8D8D818180000F8F9E8
:10073000D9D9D9D80000F8F8D8D8D8D80000000006
:10074000E0E098989898E0E0000000007878780061
:100750000000000000000000000000000000000099
:100760000000000000000000000000000000000089
:100770000000000000000101010100000000000075
:100780000000000000000000000000000000000069
:100790000000000000070701010101000007070138
:1007A0000107060000070706060606000006060603
:1007B00006070700000606060607070000000007F8
:1007C00007010101010707000000000606060000FE
:1007D000000000000008083C4299999999423C3C6D
:1007E0004299BDBD99423C080B000202020100097A
:1007F000040000010202000005240010010524018C
:1008000001010424020605240600010705810310E6
:10081000004009040100020A00000007050202402E
:1008200000000705830240000004030904120100D0
:1008300002EF020140412336800001010203014121
:10084000726475696E6F204C4C4300417264756927
:100850006E6F204C656F6E6172646F000000000067
:10086000003E5B4F5B3E3E6B4F6B3E1C3E7C3E1C36
:10087000183C7E3C181C577D571C1C5E7F5E1C007C
:10088000183C1800FFE7C3E7FF0018241800FFE733
:10089000DBE7FF30483A060E2629792926407F05F6
:1008A0000507407F05253F5A3CE73C5A7F3E1C1C0C
:1008B00008081C1C3E7F14227F22145F5F005F5FCC
:1008C00006097F017F006689956A606060606094B8
:1008D000A2FFA29408047E040810207E20100808BD
:1008E0002A1C08081C2A08081E101010100C1E0CC8
:1008F0001E0C30383E3830060E3E0E06000000005A
:100900000000005F00000007000700147F147F1440
:10091000242A7F2A12231308646236495620500085
:1009200008070300001C2241000041221C002A1C71
:100930007F1C2A08083E080800807030000808085C
:100940000808000060600020100804023E5149457C
:100950003E00427F400072494949462141494D339A
:100960001814127F1027454545393C4A4949314101
:10097000211109073649494936464949291E0000CF
:100980001400000040340000000814224114141424
:100990001414004122140802015909063E415D5910
:1009A0004E7C1211127C7F494949363E4141412219
:1009B0007F4141413E7F494949417F090909013E43
:1009C000414151737F0808087F00417F410020406A
:1009D000413F017F081422417F404040407F021C7C
:1009E000027F7F0408107F3E4141413E7F09090993
:1009F000063E4151215E7F0919294626494949325F
:100A000003017F01033F4040403F1F2040201F3F24
:100A10004038403F631408146303047804036159A9
:100A2000494D43007F4141410204081020004141EB
:100A3000417F040201020440404040400003070897
:100A40000020545478407F28444438384444442893
:100A5000384444287F385454541800087E0902183A
:100A6000A4A49C787F0804047800447D40002040C2
:100A7000403D007F1028440000417F40007C047806
:100A800004787C080404783844444438FC1824244E
:100A90001818242418FC7C080404084854545424CE
:100AA00004043F44243C4040207C1C2040201C3C4B
:100AB0004030403C44281028444C9090907C446442
:100AC000544C4400083641000000770000004136D5
:100AD000080002010204023C2623263C1EA1A1615B
:100AE000123A4040207A385454555921555579418D
:100AF0002154547841215554784020545579400C64
:100B00001E52721239555555593954545459395544
:100B10005454580000457C410002457D4200014587
:100B20007C40F0292429F0F0282528F07C545545F4
:100B3000002054547C547C0A097F49324949493287
:100B40003248484832324A4848303A4141217A3A9C
:100B500042402078009DA0A07D39444444393D4066
:100B600040403D3C24FF2424487E4943662B2FFC13
:100B70002F2BFF0929F620C0887E090320545479C1
:100B8000410000447D413048484A32384040227A92
:100B9000007A0A0A727D0D19317D2629292F28260F
:100BA0002929292630484D40203808080808080817
:100BB0000808382F10C8ACBA2F102834FA00007B70
:100BC000000008142A142222142A14089500220076
:100BD00095AA005500AAAA55AA55AA000000FF0030
:100BE000101010FF00141414FF001010FF00FF106D
:100BF00010F010F0141414FC001414F700FF00009F
:100C0000FF00FF1414F404FC141417101F10101F1D
:100C1000101F1414141F00101010F0000000001F0B
:100C2000101010101F10101010F010000000FF1016
:100C30001010101010101010FF10000000FF140012
:100C400000FF00FF00001F10170000FC04F4141444
:100C50001710171414F404F40000FF00F714141410
:100C600014141414F700F7141414171410101F1090
:100C70001F141414F4141010F010F000001F101FB3
:100C80000000001F14000000FC140000F010F01021
:100C900010FF10FF141414FF141010101F00000098
:100CA00000F010FFFFFFFFFFF0F0F0F0F0FFFFFF9C
:100CB0000000000000FFFF0F0F0F0F0F38444438F3
:100CC000447C2A2A3E147E02020606027E027E022E
:100CD00063554941633844443C04407E201E20064D
:100CE000027E020299A5E7A5991C2A492A1C4C728A
:100CF00001724C304A4D4D303048784830BC625A11
:100D0000463D3E494949007E0101017E2A2A2A2AA0
:100D10002A44445F444440514A444040444A51407C
:100D20000000FF0103E080FF000008086B6B08363D
:100D300012362436060F090F0600001818000000AE
:100D40001010003040FF0101001F01011E00191D9D
:100D50001712003C3C3C3C0000000000AF1486151C
:100D600011241FBECFEFDAE0DEBFCDBF11E0A0E05F
:100D7000B1E0E0EEFFE202C005900D92A43CB107A5
:100D8000D9F726E0A4ECB1E001C01D92A23FB20762
:100D9000E1F716E0CFEAD6E004C02197FE010E94F9
:100DA000B716CE3AD107C9F70E94A30F0C94E317E8
:100DB0000C9400002091CD01211103C08FEF9FEF13
:100DC00008955FB7F89422E02093E9002091F200A3
:100DD00030E01216130614F421E030E0422FFC013B
:100DE00084E6415038F028988093CC019091F1002E
:100DF0009193F7CF2115310521F08091F2008823DE
:100E000019F05FBFC90108958BE68093E800F9CF20
:100E10002FB7F89483E08093E9009091E800892F40
:100E2000807295FF04C09091F20080E4891B2FBF6F
:100E30000895CF93DF931F92CDB7DEB76983DC01AE
:100E4000ED91FC910280F381E02D41E050E0BE0184
:100E50006F5F7F4F09950F90DF91CF91089583E0E9
:100E60008093E9008091F200882319F08AE380934F
:100E7000E80008950E94080790E00895CF93DF935B
:100E80001F92CDB7DEB7FC018485958597FD05C01F
:100E90002FEF3FEF358724870BC0CE0101960E94CC
:100EA000DA06019719F4898190E002C08FEF9FEF75
:100EB0000F90DF91CF9108950F931F93CF93DF93FE
:100EC0001F92CDB7DEB78C01FC018485958597FF15
:100ED0000EC0CE0101960E94DA06019719F48981AD
:100EE00090E002C08FEF9FEFF80195878487F801AB
:100EF000848595850F90DF91CF911F910F91089573
:100F0000CF93DF93EC010E94E71522E030E040E050
:100F100050E00E94541679836883DF91CF91089541
:100F2000009769F0FC0101900020E9F73197AF01CB
:100F3000481B590BBC018CE696E00C94360D80E002
:100F400090E008958F929F92AF92BF92CF92DF92DE
:100F5000EF92FF920F931F93CF93DF936C017B016E
:100F60008A0180910901882309F45CC08091CD0138
:100F7000882309F457C08091CB0180FF05C0809180
:100F8000E00082608093E000E801B12C8AEFA82E97
:100F900093E0892E2AE3922E209711F4BB20D9F1F9
:100FA0000E94080781110AC0AA94AA20D9F161E021
:100FB00070E080E090E00E94B20CEECF282F30E08D
:100FC000C217D3070CF48C2F9FB7F8948092E900D6
:100FD0002091E80025FF1DC0282F30E0C21BD30B55
:100FE000F701815020F041914093F100FACFE20ED9
:100FF000F31EBB2019F09092E8000AC08091E8002F
:1010000085FD07C09092E800BB24B394209709F0B7
:10101000B12C9FBFC1CF5D9884E68093CA011016A2
:10102000110644F081E090E0F6019383828380E032
:1010300090E001C0C801DF91CF911F910F91FF9007
:10104000EF90DF90CF90BF90AF909F908F900895DA
:10105000FC01618D728D208145ED57E08CE390E0BD
:101060000C947A0ECF93DF93EC010E946F0F85FFF3
:1010700008C0898D9A8D4B9721F488819981892B9D
:1010800069F00E946F0F298D3A8D86FF0FC02B31BA
:10109000310561F488819981019741F48CE99FEFD2
:1010A0009A8F898FCE010E94800719C02B3131059C
:1010B000B1F488819981019729F0898D9A8D4B9798
:1010C00071F405C00E946F0F85FD0CC0F6CF8881BA
:1010D0009981892B21F40E946F0F86FD03C080E067
:1010E00090E002C08FEF9FEFDF91CF910895FC0158
:1010F000218D328D2B31310524F42F5F3F4F328FFC
:10110000218F089580E0EEECF1E081118FEF002453
:1011100081938193819381930394D1F7ECE6F6E078
:10112000128A118A108A178608958F929F92AF9221
:10113000BF92CF92DF92EF92FF920F931F93CF93C4
:10114000DF93CDB7DEB7A1970FB6F894DEBF0FBE21
:10115000CDBF6C01990FEE08FF08F7FE2BC06DE2C2
:101160008CE696E00E94600D8C0122273327A901AE
:101170002C193D094E095F0919A2CE0181967C0107
:101180009AE0892E912CA12CB12CCA01B901A5019C
:1011900094010E948616605DF70162937F0121151C
:1011A00031054105510589F7CF010E949007800F55
:1011B000911F1DC0A701960119A28E010F5D1F4F3F
:1011C0008AE0C82ED12CE12CF12CCA01B901A7016B
:1011D00096010E948616605DF80162938F012115C9
:1011E00031054105510589F7CF010E949007A1966D
:1011F0000FB6F894DEBF0FBECDBFDF91CF911F9128
:101200000F91FF90EF90DF90CF90BF90AF909F90A5
:101210008F9008950C949007EEECF1E0A0E0B8E018
:1012200000800EBC8111012C1197A0FDFDCF019211
:10123000B9F70DB408958091870681110DC082E041
:101240008093830684E08093840610928606109231
:10125000850681E08093870683E896E00895FC0187
:101260008485958597FD0BC09FB7F89482E08093A5
:10127000E9008091F2009FBF90E0019608959FB72A
:10128000F89482E08093E9008091F2009FBF90E0A3
:1012900008954091EB065091EC062091E9063091BB
:1012A000EA0642175307B4F49091E8009570E1F311
:1012B0009091E80092FD19C08093F1008091EB06B7
:1012C0009091EC0601968F739927892B19F48EEF74
:1012D0008093E8008091EB069091EC060196909344
:1012E000EC068093EB0681E0089580E00895DF929C
:1012F000EF92FF920F931F93CF93DF93D82E8A0123
:101300007B01E40EF51EEB01CE15DF0571F0D7FE73
:1013100003C0FE01849101C088810E944909219681
:101320008111F2CF8FEF9FEF01C0C801DF91CF9104
:101330001F910F91FF90EF90DF900895615030F072
:101340002091F100FC0120830196F8CF289884E6D3
:101350008093CC0108953FB7F8948091E506909171
:10136000E606A091E706B091E80626B5A89B05C061
:101370002F3F19F00196A11DB11D3FBFBA2FA92F14
:10138000982F8827820F911DA11DB11DBC01CD0191
:1013900042E0660F771F881F991F4A95D1F708957D
:1013A0000F931F93CF93DF931F92CDB7DEB782E0E9
:1013B000898342E450E067EE77E080E80E94770995
:1013C0000E941B09DC0112960D911C9113970115C7
:1013D000110589F0D801ED91FC910280F381E02D97
:1013E000BE016F5F7F4FC801099597FD04C0F801EA
:1013F00000851185ECCF89810F90DF91CF911F91EE
:101400000F9108951F920F920FB60F9211248F9390
:101410009F938091E1009091E100937F9093E10090
:1014200083FF0FC01092E90091E09093EB001092BF
:10143000EC0092E39093ED001092CD0198E0909330
:10144000F00082FF20C093E09093E9009091F200B9
:10145000992319F09AE39093E8009091CA01992397
:1014600039F09091CA0191509093CA01992389F162
:101470009091CC01992339F09091CC0191509093A7
:10148000CC01992341F184FF10C08091E2008E7E4F
:1014900081608093E2008091E1008F7E8093E10083
:1014A0008091CB018E7E806111C080FF16C080913B
:1014B000E2008E7E80618093E2008091E1008E7E6A
:1014C0008093E1008091CB018E7E81608093CB017F
:1014D00004C05D9ACDCF289AD6CF9F918F910F905F
:1014E0000FBE0F901F9018951F920F920FB60F927C
:1014F0001124CF92DF92EF92FF920F931F932F93BD
:101500003F934F935F936F937F938F939F93AF938B
:10151000BF93EF93FF93CF93DF93CDB7DEB76C9775
:10152000DEBFCDBF1092E9008091E80083FFFBC1D0
:1015300068E0CE0145960E949E0982EF8093E80004
:101540008D8987FF05C09091E80090FFFCCF03C014
:101550009EEF9093E800982F907609F0C6C09E8980
:101560004F89588D2F89F88C91110CC0803829F43F
:101570008091E3068093F10002C01092F100109276
:10158000F10045C1913051F4811141C14130510503
:1015900009F03DC18091E3068D7F0BC0933061F46B
:1015A000811135C14130510509F031C18091E30607
:1015B00082608093E3062BC1953049F48091E80066
:1015C00080FFFCCF822F80688093E30020C196309B
:1015D00009F05EC00B8D1C8D22E01092E900109284
:1015E000EC061092EB06F21232C01092EA0610924C
:1015F000E9060E94D00999E0BE016F5F7F4FDB01D1
:10160000E92F1D92EA95E9F79983FA8291E09E838A
:1016100090EA98879AEF99872091EB063091EC0633
:10162000275F3F4F3C832B838D831092E9001092FC
:10163000EC061092EB061093EA060093E90649E0E7
:1016400050E080E00E9477090E94D009E0C010932A
:10165000EA060093E9060E941B09DC0112960D912F
:101660001C9113970115110509F4BBC0D801ED9128
:10167000FC910480F581E02DBE016B5E7F4FC801B7
:101680000995009709F0C7C0F80100851185EACFD8
:10169000973009F445C1983021F481E08093F1003E
:1016A000B6C0993009F0B3C0837009F039C1E7E3DF
:1016B000F1E081E031E096E32081211109C08EE75D
:1016C0008093EA001092EA008F898093CD019FC039
:1016D0008093E9003093EB0021912093EC009093EC
:1016E000ED008F5F873041F7EACF8B8D9C8D109294
:1016F000E9001092EC061092EB069093EA068093B4
:10170000E906898D811153C08E899D89913A49F4EA
:10171000813209F005C147E050E062E071E080E00D
:10172000BBC0913209F0FCC0833269F48F89988D77
:10173000A0E0B0E080930A0190930B01A0930C010C
:10174000B0930D0164C0803269F48091E80082FF9B
:10175000FCCF67E082E091E00E949E098BEF8093CE
:10176000E80055C0823209F052C08F898093090188
:10177000EEEFFFE7859194918B3F9C4D19F0E0E0EF
:10178000F8E002C0EEEFFAE08091020190910301CF
:10179000A0910401B0910501803B9440A105B105E1
:1017A00009F09EC08091090180FF79C099C00E9414
:1017B0001B09FC01028113810115110509F4B0C058
:1017C000D801ED91FC910190F081E02DBE016B5E9E
:1017D0007F4FC801099581111AC0F8010085118554
:1017E000EBCFF1E0FF1609F44EC0F3E0FF1298C012
:1017F0008F89882309F44AC0823089F440E860E187
:101800008BE498E00E94F414882309F489C08EEFD9
:101810008093E80088C018161906CCF381C0813087
:1018200029F440E86BE08FE398E0ECCF833009F0D7
:1018300077C00E941B09DC011296ED90FC90139773
:101840008E010F5F1F4F6801E114F10479F0D70199
:10185000ED91FC910680F781E02DB801C701099553
:10186000080F111DF701E084F184EECFD8011C921E
:10187000F60101900020E9F73197BF016C197D094D
:1018800040E0C601BFCF6DE278E002C069E278E0D7
:10189000FB01449150E080E80E947709B8CFEE3F09
:1018A0002AE0F20751F0808191818737A7E79A07F4
:1018B00021F09093FF0A8093FE0A87E797E79183D0
:1018C0008083809160008093ED069BE088E10FB6F5
:1018D000F894A895809360000FBE9093600097CF16
:1018E000808191818737974709F091CFA8958091A2
:1018F00060008861809360008091ED0680936000B5
:10190000EE3FBAE0FB0739F08091FE0A9091FF0AA2
:10191000918380837CCF1092FF0A1092FE0A77CFCA
:1019200081E28093EB006C960FB6F894DEBF0FBE99
:10193000CDBFDF91CF91FF91EF91BF91AF919F917B
:101940008F917F916F915F914F913F912F911F9157
:101950000F91FF90EF90DF90CF900F900FBE0F9000
:101960001F9018958F929F92AF92BF92CF92DF9265
:10197000EF92FF926B017C010E94AB094B015C016D
:10198000C114D104E104F104F1F00E94AB09DC01BF
:10199000CB0188199909AA09BB09883E9340A10582
:1019A000B10570F321E0C21AD108E108F10888EE10
:1019B000880E83E0981EA11CB11CC114D104E1045F
:1019C000F10419F7DDCFFF90EF90DF90CF90BF903B
:1019D000AF909F908F9008951F920F920FB60F9225
:1019E00011242F933F938F939F93AF93BF93809135
:1019F000DF069091E006A091E106B091E2063091F9
:101A0000E40623E0230F2D3720F40196A11DB11D1C
:101A100005C026E8230F0296A11DB11D2093E40600
:101A20008093DF069093E006A093E106B093E20670
:101A30008091E5069091E606A091E706B091E80650
:101A40000196A11DB11D8093E5069093E606A09333
:101A5000E706B093E806BF91AF919F918F913F91B8
:101A60002F910F900FBE0F901F901895CF92DF927D
:101A7000EF92FF920F931F93CF93DF936C017A0144
:101A80008B01C0E0D0E0CE15DF0581F0D8016D916B
:101A90008D01D601ED91FC910190F081E02DC60100
:101AA0000995892B11F02196EECF7E01C701DF91B8
:101AB000CF911F910F91FF90EF90DF90CF900895FD
:101AC0002F923F924F925F926F927F928F929F924E
:101AD000AF92BF92CF92DF92EF92FF920F931F933C
:101AE000CF93DF93CDB7DEB728970FB6F894DEBF5C
:101AF0000FBECDBF9D838C836A30A1F4DC01559667
:101B00002C91559751968D919C915297B8E02B9FAF
:101B1000800D911D1124EC81FD81928B818B108AA7
:101B20001786C6C06D3009F4C3C0AC81BD811F9655
:101B30008D919C91509780389105BCF0EC81FD818E
:101B40002589422F50E087859089F6E02F9F800DF0
:101B5000911D1124AC81BD8150969C938E931F974B
:101B600056962C9121118FC0A3C0EC81FD81E18894
:101B7000F288F0E4EF16F1040CF7AC81BD815596C4
:101B8000BC91BE839C01E5E0BE9F200D311D112458
:101B9000121613069CF6CB2ED12C970158E0B59F58
:101BA000200D311D11241216130644F6AC81BD819F
:101BB00054965C90549753964C90B5E06B9FF0010F
:101BC00011249F01245A374F38872F83912C30E1FD
:101BD000732EEF81F8858490F5E09F1201C0812C6F
:101BE000870128E0622E80FE02C0542D01C0552DD1
:101BF000511103C0541409F433C09C01F52FF17046
:101C0000322E622F681B4E81641750F5B801A62F43
:101C1000A01B5E81A51708F520383105D8F4603483
:101C20007105C0F45B01A501E1E041FDE4E040FD88
:101C3000EE0F42FDE295487F749ED0011124A30D62
:101C4000BA83A983A253BE4FBC90BE2AF11101C032
:101C5000BE26BC926F5F7F4FDACF2F5F3F4FD0CF52
:101C600086946A940C0D1D1D6110BDCF93948C0D4C
:101C70009D1D2F8138852F5F3F4F38872F8336E09A
:101C80009312A7CF5BCF6AEF64039001659F300D7D
:101C9000112420583F4F2817390754F48C819D8117
:101CA000DC01ED91FC910190F081E02D6AE0099555
:101CB00081E090E028960FB6F894DEBF0FBECDBF4E
:101CC000DF91CF911F910F91FF90EF90DF90CF9018
:101CD000BF90AF909F908F907F906F905F904F904C
:101CE0003F902F9008950895089580E090E0089522
:101CF0000E94DE178F929F92AF92BF92CF92DF9297
:101D0000EF92FF920F931F93CF93DF9300D0CDB745
:101D1000DEB7DC014115510509F4CBC0FA01B490DE
:101D2000319694914E5F5F4F8B2C912C2223D9F0EA
:101D3000E1E0F0E0892F877011F4E0E0F0E0892F16
:101D4000869586958695E80FF11DE89D7001E99DC1
:101D5000F00CF89DF00C11242E9DF0012F9DF00D3C
:101D600011244E0F5F1F7401EA0EFB1E1E141F0488
:101D70000CF09FC0A038B1050CF09BC09B01290F4F
:101D8000311D121613060CF094C0603471050CF06E
:101D900090C04115510509F48CC0F62FF770CF2E75
:101DA0009B0177FF02C0295F3F4F83E03595279560
:101DB0008A95E1F7F22F77FF04C0CC2011F0FFEFF6
:101DC000F20FB7FF05C0662777276A1B7B0B02C09F
:101DD00060E070E000E8E016F10424F080E8D82E1E
:101DE000DA1A01C0DB2CD61A2F2F0F2E000C330B62
:101DF000FF3F1CF4F22EF09401C0F12CE1E0892F9A
:101E0000877009F4E0E09695969596959E0F290FB8
:101E1000311D2930310514F098E09F1B8F2D8F0F55
:101E20009B01BF9C200D311D1124420F531F21E047
:101E300030E079010C2C02C0EE0CFF1C0A94E2F792
:101E40009D01182F00E81003200D311D1124260FCD
:101E5000371F22533E4F9F0F981759F1D9018A011E
:101E6000602F641B6D15F8F4F801B490BE9CB001AE
:101E7000BF9C700D11247A83698387FD03C07C9118
:101E8000672B6C93CC2059F087304CF45D01F0E85F
:101E9000AF0EB11CF50170816A81672B60830F5F03
:101EA0001F4F1196DDCF8F5F480D591D20583F4FB2
:101EB000D3CF0F900F90DF91CF911F910F91FF9093
:101EC000EF90DF90CF90BF90AF909F908F9008954C
:101ED0002D9A0895BC0180E090E00C94B20C8FB173
:101EE0008095807F669B88601C9B846008950C941D
:101EF0003E1680E00C940C09109254061092530682
:101F00008DED9FEF909339068093380689EC9FEF13
:101F100090931E0680931D0685EB9FEF909303061A
:101F2000809302068CE99FEF9093E8058093E70584
:101F30001092C5011092C40181E090E090930101DC
:101F4000809300010895789484B5826084BD84B53F
:101F5000816084BD85B5826085BD85B5816085BDA4
:101F600080916E00816080936E001092810080915C
:101F700081008260809381008091810081608093E4
:101F80008100809180008160809380008091910029
:101F90008260809391008091910081608093910094
:101FA000809190008160809390008091C100846056
:101FB0008093C1008091C10082608093C1008091B4
:101FC000C10081608093C1008091C30081608093D3
:101FD000C3008091C00082608093C0008091C200E5
:101FE00081608093C20080917A00846080937A003F
:101FF00080917A00826080937A0080917A0081607B
:1020000080937A0080917A00806880937A001092A1
:10201000CD011092E3061092CB018091D700816030
:102020008093D70080EA8093D80089B5806189BD0C
:1020300089B5826089BD09B400FEFDCF61E070E022
:1020400080E090E00E94B20C8091D8008F7C80618B
:102050008093D8008091E000807F8093E0008091A1
:10206000E1008E7E8093E1008DE08093E200559A3E
:10207000209A81EC80937C0085B1806F85B984B112
:10208000877E84B984B1876E84B95E9A5F988AB17D
:10209000806D8AB9769A6E9881B3806F81BB89987A
:1020A00080B38D7080BB80E58CBD81E08DBD85E007
:1020B00090E00E946A0F5F9A85E090E00E946A0FAC
:1020C0005E985C98ECE5F1E089E691E024912EBD04
:1020D00000000DB407FEFDCF31968E179F07B1F7B4
:1020E0005C9A81E8809364008091650081608093B0
:1020F000650080E796E00E94790F0E946F0F87FFCE
:1021000024C05C9885EA8EBD00000DB407FEFDCFAB
:102110005C9A2E982F982D9880916400806280930D
:10212000640081E083BF889513BEFCCF2D980E9488
:102130006F0F8478843871F00E946F0F847184313E
:1021400031F188EC90E00E946A0F0E946F0F82FDCF
:10215000EDCF3AC00E94680F88EC90E00E946A0FB1
:102160002F9882E090E00E943E168F3F29F06FEF9B
:1021700082E090E00E94461684EF91E00E946A0F90
:102180002F9A0E946F0F84788438D9F3D5CF0E949C
:10219000680F88EC90E00E946A0F2E9882E090E031
:1021A0000E943E16882329F060E082E090E00E94C1
:1021B000461684EF91E00E946A0F2E9A0E946F0FDC
:1021C00084718431D9F3BDCF0E94680F82E090E022
:1021D0000E94770F882319F03E9A3F9A02C03E98DA
:1021E0003F9881E090E00E94770F282F2470D22E34
:1021F00081FF84C021112E98C0EFDFEF08E010E0CE
:102200000E946F0F86FF05C02E9A2F9A0E94680FBA
:1022100075C0DD2029F0C430D10511F42E9A2F9815
:1022200081E00E940C099E01D7FF04C022273327BA
:102230002C1B3D0B27703327CE01D7FD0796F3E00B
:1022400095958795FA95E1F7D7FF05C00197A80105
:10225000421B530B9A01AC015695542F44275795B6
:10226000479542535E4FA0E0B0E04801821A930ABE
:102270008F3F6FEF96074CF40196A85ABF4F405816
:102280005F4FA03BB105A1F71EC07A01E4E9EE0E55
:10229000F11C5A0160E070E08F3FFFEF9F0709F4E7
:1022A00008C3FB01EA0FFB1FE455FF4FE491F0E088
:1022B0003F01022E01C0660C0A94EAF7F501C488BA
:1022C0006C28648AF6C280E796E00E94790F8FE05E
:1022D00090E00E946A0F2196C931D10509F090CF94
:1022E000DD2011F02F9A2D9880E991E00E946A0F6D
:1022F0000E94680F8CE696E00E94451582E390E00C
:102300000E946A0F0E946F0F8111F8CF84E18093C1
:1023100077068DED9FEF909339068093380689EC10
:102320009FEF90931E0680931D0685EB9FEF909381
:102330000306809302068CE99FEF9093E805809353
:10234000E70506EF1FEF61EF262E33243A947CEE6B
:10235000A72EBB24BA9432EE432E55245A9448ED4E
:10236000642E77247A945EECE52EFF24FA948FB7DE
:10237000F8944091DF065091E0066091E10670917B
:10238000E2068FBF80917806F42FF81B8F2F909173
:102390007906992329F0F0937A061092790681C282
:1023A00090917706F91748F48F5F891708F079C282
:1023B00081E083BF889513BE74C281E08093790663
:1023C00040937806809173069091740601969093DD
:1023D0007406809373060E9482088091C8019091D0
:1023E000C90181309105F1F08230910509F4C1C134
:1023F000892B09F04AC220E04BED53E060E070E029
:1024000080E090E00E947A0E0E947C0F0E946F0F85
:1024100083FF3BC28091C6019091C701892B09F4CB
:102420006AC233C20E9482088091C4019091C501A2
:1024300001969093C5018093C40110927C0610927E
:102440007B0610927E0610927D060E94950840E55C
:1024500050E050937C0640937B0610927E061092CB
:102460007D0680910001909101010E94950820E075
:1024700049EE52E060E070E081E390E00E947A0E65
:1024800020E047E652E060E170E088E090E00E94E2
:102490007A0E20E045EE51E060E170E088E590E0E2
:1024A0000E947A0E8AE396E00E9428088FE196E067
:1024B0000E94280884E096E00E94280889EE95E0B2
:1024C0000E9428088EEC95E00E9428088AE396E096
:1024D0000E9477088FE196E00E94770884E096E0FA
:1024E0000E94770889EE95E00E9477088EEC95E0CF
:1024F0000E9477088091C4019091C501843F51E00A
:10250000950739F5109354060093530670923906D7
:102510006092380684EC9FEF90931E0680931D0610
:1025200080EB9FEF90930306809302068CE99FEF68
:102530009093E8058093E7050E94820810927C063C
:1025400010927B0610927E0610927D0681E591E046
:1025500076C0883EE3E09E0729F510935406009369
:1025600053065092390640923806F0921E06E092C9
:102570001D064AEB5FEF509303064093020686EA7E
:102580009FEF9093E8058093E7050E9482081092E0
:102590007C0610927B0610927E0610927D068BE5DB
:1025A00091E04DC08C3DE5E09E0709F5109354067F
:1025B00000935306B0923906A092380650921E0638
:1025C00040921D067092030660920206F092E805A2
:1025D000E092E7050E94820810927C0610927B062A
:1025E00010927E0610927D0685E691E028C0803D1F
:1025F000974009F042C04BEF5FEF50935406409371
:102600005306109339060093380630921E06209226
:102610001D06B0920306A092020687EE9FEF9093EC
:10262000E8058093E7050E94820810927C061092CC
:102630007B0610927E0610927D068FE691E00E9446
:102640000A0920E047EA51E06CE070E082E390E0A4
:102650000E947A0E80E796E00E94790F68E873E1A5
:1026600080E090E00E94B20C809100019091010105
:1026700001969093010180930001209153063091BF
:10268000540680913806909139062B313105C9F4F2
:102690008B31910509F443C020911D0630911E062F
:1026A0002B313105E1F120910206309103062B31E7
:1026B0003105A9F12091E7053091E8052B3131056D
:1026C00071F120911D0630911E064B9779F42B3144
:1026D000310529F180910206909103064B97F9F09C
:1026E0008091E7059091E8054B97C9F0809102062B
:1026F000909103062B31310551F48B31910579F01E
:102700002091E7053091E8052B31310541F04B97D9
:1027100069F48091E7059091E8054B9739F4E2E080
:10272000F0E0F093C901E093C801AFC08AE396E0FE
:102730000E943208019699F38FE196E00E943208D8
:10274000019669F384E096E00E943208019639F31D
:1027500089EE95E00E943208019609F38EEC95E02F
:102760000E9432080196D9F280E796E00E94790F24
:102770008CC00E948208C1E0D0E0D0937C06C09358
:102780007B0610927E0610927D0680E891E00E9402
:102790000A0920E049E651E06FE070E089E590E049
:1027A0000E947A0ED0937C06C0937B0684E1C82EEB
:1027B000D12CD0927E06C0927D068CE891E00E94DA
:1027C0000A0983E290E090937C0680937B06D09286
:1027D0007E06C0927D068091C4019091C5010E9441
:1027E0009508D0937C06C0937B069EE1C92ED12C20
:1027F000D0927E06C0927D0684E991E00E940A098B
:1028000022E3822E912C90927C0680927B06D092BD
:102810007E06C0927D0680910001909101010E9488
:102820009508D0937C06C0937B0688E290E0909355
:102830007E0680937D068CE991E00E940A09D09380
:102840007C06C0937B0690927E0680927D0682EB8A
:1028500091E00E940A0980E796E00E94790F0E94A9
:102860006F0F83FF07C08091C6019091C701892B2C
:1028700009F44CC00E946F0F82FF07C08091C6010F
:102880009091C701892B09F44AC00E946F0F83FD04
:1028900004C01092C7011092C60180E796E00E9422
:1028A000790F80E090E0892B09F461CD0E9400004F
:1028B00052CD2115310591F0FB01EA0FFB1FE455C4
:1028C000FF4FE491F0E03F01082C02C0759467943B
:1028D0000A94E2F7F701C0806C2860826F5F7F4F37
:1028E000FFEFEF1AFF0AEFEFAE1ABE0A6835710567
:1028F00009F0D2CCC1CC81E090E09093C7018093E5
:10290000C6019093C9018093C801BFCFD093C7017E
:10291000C093C6011092C9011092C801ABCF81E0EB
:1029200090E09093C7018093C6019093C901809372
:10293000C8010E947C0FA9CFCF93DF93EC010296D0
:102940000E9429150E94E71522E030E040E050E0A7
:102950000E94541679836883DF91CF910895EFE840
:10296000F6E01382128288EE93E0A0E0B0E0848368
:102970009583A683B78388E291E0918380838FEF6C
:102980009FEF958784878CE696E00E94291585E560
:1029900096E00E9429158AE396E00E949C148FE13C
:1029A00096E00E949C1484E096E00E949C1489EEBC
:1029B00095E00E949C148EEC95E00C949C14CF93AF
:1029C000DF93009741F0EC010E94DF14CE01DF910C
:1029D000CF910C945517DF91CF9108950E94EE147A
:1029E00085E596E00C945517DF92EF92FF920F93D6
:1029F0001F93CF93DF93D82EF92EE42E062F10E0ED
:102A0000C8010196880F0E94490983E00E94490984
:102A1000CD2DDF2D0C0F1D1FC017D10789F0E7FE4C
:102A200003C0FE01849101C088810E944909F82EEB
:102A300080E00E9449098F2121968111EDCF01C0CC
:102A400081E0DF91CF911F910F91FF90EF90DF9088
:102A50000895FC01138212821186128680E1838719
:102A600010861782158681E491E0918380838FE43C
:102A700091E095838483108A1786128A118A81E0F7
:102A8000838B148A858B168A08950F931F93CF9397
:102A9000DF93EC0181E090E00E94770F80FF2EC071
:102AA0008AE090E00E94770F9FEF980F9E3F30F5ED
:102AB00022E330E0388B2F8728E330E03A8B298BF4
:102AC0000BE010E0E881F9810190F081E02D682FA2
:102AD000CE010995C8010E94770F0F5F1F4F01318A
:102AE000110581F7CE0104960E94790F88EE93E0DC
:102AF000DF91CF911F910F910C946A0FDF91CF91CD
:102B00001F910F91089504970C9445158EEC95E054
:102B10000E94DF1489EE95E00E94DF1484E096E0C5
:102B20000E94DF148FE196E00E94DF148AE396E0B2
:102B30000E94DF140C94EE148F929F92AF92BF927A
:102B4000CF92DF92EF92FF92CF93DF93EC016881F7
:102B500079818A819B81611571058105910521F437
:102B600064E279ED8BE597E02DE133EF41E050E051
:102B70000E94541649015A019B01AC01A7EAB1E435
:102B80000E9473166B017C01ACEEB4EFA5019401B9
:102B90000E948116DC01CB018C0D9D1DAE1DBF1D59
:102BA000B7FF03C00197A109B04888839983AA831E
:102BB000BB83BC01CD019F77DF91CF91FF90EF9058
:102BC000DF90CF90BF90AF909F908F9008958F929D
:102BD0009F92AF92BF92CF92DF92EF92FF9260915D
:102BE0000E0170910F0180911001909111016115FA
:102BF00071058105910521F464E279ED8BE597E09B
:102C00002DE133EF41E050E00E94541649015A0192
:102C10009B01AC01A7EAB1E40E9473166B017C0131
:102C2000ACEEB4EFA50194010E948116DC01CB014A
:102C30008C0D9D1DAE1DBF1DB7FF03C00197A109DF
:102C4000B04880930E0190930F01A0931001B093B0
:102C50001101BC01CD019F77FF90EF90DF90CF90E5
:102C6000BF90AF909F908F90089560930E017093E6
:102C70000F0180931001909311010895F999FECFEF
:102C800092BD81BDF89A992780B50895262FF999AC
:102C9000FECF1FBA92BD81BD20BD0FB6F894FA9A3F
:102CA000F99A0FBE01960895052E97FB1EF4009425
:102CB0000E946B1657FD07D00E94861607FC03D0B2
:102CC0004EF40C946B1650954095309521953F4FDE
:102CD0004F4F5F4F089590958095709561957F4F08
:102CE0008F4F9F4F08950E94A816A59F900DB49FE7
:102CF000900DA49F800D911D11240895B7FF0C9491
:102D000073160E947316821B930B0895A1E21A2E6C
:102D1000AA1BBB1BFD010DC0AA1FBB1FEE1FFF1F7F
:102D2000A217B307E407F50720F0A21BB30BE40BCF
:102D3000F50B661F771F881F991F1A9469F7609516
:102D40007095809590959B01AC01BD01CF010895D0
:102D5000A29FB001B39FC001A39F700D811D1124DC
:102D6000911DB29F700D811D1124911D0895EE0FCC
:102D7000FF1F0590F491E02D09940F931F93CF93BB
:102D8000DF938230910510F482E090E0E091F0064C
:102D9000F091F10620E030E0A0E0B0E0309719F1CA
:102DA000408151810281138148175907C8F0841767
:102DB000950769F4109731F012960C9312971396B9
:102DC0001C9327C00093F0061093F10622C0211532
:102DD000310519F04217530718F49A01BD01EF01AC
:102DE000DF01F801DBCF21153105F9F0281B390B84
:102DF0002430310580F48A819B816115710521F0B1
:102E0000FB019383828304C09093F1068093F006C4
:102E1000FE01329644C0FE01E20FF31F81939193AD
:102E200022503109398328833AC02091EE0630912F
:102E3000EF06232B41F420911401309115013093BA
:102E4000EF062093EE062091120130911301211517
:102E5000310541F42DB73EB740911601509117014D
:102E6000241B350BE091EE06F091EF06E217F30715
:102E7000A0F42E1B3F0B2817390778F0AC014E5FEA
:102E80005F4F2417350748F04E0F5F1F5093EF0632
:102E90004093EE068193919302C0E0E0F0E0CF0111
:102EA000DF91CF911F910F910895CF93DF930097FA
:102EB00009F481C0FC01329713821282A091F006BE
:102EC000B091F106109781F420813181820F931F18
:102ED0002091EE063091EF062817390751F5F0934F
:102EE000EF06E093EE0667C0ED0120E030E0CE177C
:102EF000DF0740F44A815B819E0141155105F1F0E5
:102F0000EA01F5CFD383C28340815181840F951F9D
:102F1000C817D90759F488819981840F951F0296A3
:102F2000918380838A819B819383828321153105DC
:102F300029F4F093F106E093F0063DC0E901FB832C
:102F4000EA8349915991C40FD51FEC17FD0761F42D
:102F500080819181840F951F0296E901998388836E
:102F6000828193819B838A83E0E0F0E012968D91C9
:102F70009C911397009719F0FD01DC01F7CF8D911B
:102F80009C9111979D012E5F3F4F820F931F2091BF
:102F9000EE063091EF062817390769F4309729F4C7
:102FA0001092F1061092F00602C013821282B093C2
:102FB000EF06A093EE06DF91CF91089581E090E0B7
:102FC000F8940C94E31716E0CFEAD6E004C0FE01B3
:102FD0000E94B7162196C03BD107C9F7F894FFCFDE
:102FE000010000E1000000000000FFFFFFFF010002
:102FF00000000000F206800000000000780E360D90
:10300000750E740E000000001907A2073A072F077B
:103010002F093E075C0700C180810000000000000E
:1030200000600D360D750E740E4515FCFF00008313
:10303000154C6576656C20322021004C6576656CF8
:1030400020332021004C6576656C20342021004C13
:10305000617374204C6576656C203A203520210020
:1030600047616D65206F76657220210053636F7232
:1030700065203A004C6576656C203A004120627507
:1030800074746F6E203A20676F20746F206D656EC8
:1030900075004220627574746F6E203A20726574F8
:0430A0007279000041
:00000001FF
